{
  "_format": "hh-sol-artifact-1",
  "contractName": "ChainlinkVRFDemo",
  "sourceName": "contracts/VRFConsumer.sol",
  "abi": [
    {
      "inputs": [
        {
          "internalType": "address",
          "name": "vrfCoordinatorAddr",
          "type": "address"
        },
        {
          "internalType": "uint64",
          "name": "subId",
          "type": "uint64"
        }
      ],
      "stateMutability": "nonpayable",
      "type": "constructor"
    },
    {
      "inputs": [
        {
          "internalType": "address",
          "name": "have",
          "type": "address"
        },
        {
          "internalType": "address",
          "name": "want",
          "type": "address"
        }
      ],
      "name": "OnlyCoordinatorCanFulfill",
      "type": "error"
    },
    {
      "inputs": [
        {
          "internalType": "uint256",
          "name": "requestId",
          "type": "uint256"
        },
        {
          "internalType": "uint256[]",
          "name": "randomWords",
          "type": "uint256[]"
        }
      ],
      "name": "rawFulfillRandomWords",
      "outputs": [],
      "stateMutability": "nonpayable",
      "type": "function"
    },
    {
      "inputs": [],
      "name": "requestRandomWords",
      "outputs": [],
      "stateMutability": "nonpayable",
      "type": "function"
    },
    {
      "inputs": [],
      "name": "requstId",
      "outputs": [
        {
          "internalType": "uint256",
          "name": "",
          "type": "uint256"
        }
      ],
      "stateMutability": "view",
      "type": "function"
    },
    {
      "inputs": [
        {
          "internalType": "uint256",
          "name": "",
          "type": "uint256"
        }
      ],
      "name": "s_randomWords",
      "outputs": [
        {
          "internalType": "uint256",
          "name": "",
          "type": "uint256"
        }
      ],
      "stateMutability": "view",
      "type": "function"
    }
  ],
  "bytecode": "0x60a06040527f79d3d8832d904592c0bf9818b621522c988bb8b0c05cdc3b15aea1b6e8db0c1560001b6001556003600260086101000a81548161ffff021916908361ffff16021790555062030d406002600a6101000a81548163ffffffff021916908363ffffffff16021790555060036002600e6101000a81548163ffffffff021916908363ffffffff16021790555034801561009b57600080fd5b50604051610a31380380610a3183398181016040528101906100bd9190610247565b818073ffffffffffffffffffffffffffffffffffffffff1660808173ffffffffffffffffffffffffffffffffffffffff168152505050816000806101000a81548173ffffffffffffffffffffffffffffffffffffffff021916908373ffffffffffffffffffffffffffffffffffffffff16021790555080600260006101000a81548167ffffffffffffffff021916908367ffffffffffffffff16021790555033600460006101000a81548173ffffffffffffffffffffffffffffffffffffffff021916908373ffffffffffffffffffffffffffffffffffffffff1602179055505050610287565b600080fd5b600073ffffffffffffffffffffffffffffffffffffffff82169050919050565b60006101d4826101a9565b9050919050565b6101e4816101c9565b81146101ef57600080fd5b50565b600081519050610201816101db565b92915050565b600067ffffffffffffffff82169050919050565b61022481610207565b811461022f57600080fd5b50565b6000815190506102418161021b565b92915050565b6000806040838503121561025e5761025d6101a4565b5b600061026c858286016101f2565b925050602061027d85828601610232565b9150509250929050565b6080516107896102a86000396000818160c7015261011b01526107896000f3fe608060405234801561001057600080fd5b506004361061004c5760003560e01c80631fe543e314610051578063e0c862891461006d578063f6eaffc814610077578063fb1685f3146100a7575b600080fd5b61006b60048036038101906100669190610529565b6100c5565b005b610075610185565b005b610091600480360381019061008c9190610585565b6102d7565b60405161009e91906105c1565b60405180910390f35b6100af6102fb565b6040516100bc91906105c1565b60405180910390f35b7f000000000000000000000000000000000000000000000000000000000000000073ffffffffffffffffffffffffffffffffffffffff163373ffffffffffffffffffffffffffffffffffffffff161461017757337f00000000000000000000000000000000000000000000000000000000000000006040517f1cf993f400000000000000000000000000000000000000000000000000000000815260040161016e92919061061d565b60405180910390fd5b6101818282610301565b5050565b600460009054906101000a900473ffffffffffffffffffffffffffffffffffffffff1673ffffffffffffffffffffffffffffffffffffffff163373ffffffffffffffffffffffffffffffffffffffff16146101df57600080fd5b60008054906101000a900473ffffffffffffffffffffffffffffffffffffffff1673ffffffffffffffffffffffffffffffffffffffff16635d3b1d30600154600260009054906101000a900467ffffffffffffffff16600260089054906101000a900461ffff166002600a9054906101000a900463ffffffff166002600e9054906101000a900463ffffffff166040518663ffffffff1660e01b815260040161028c9594939291906106be565b6020604051808303816000875af11580156102ab573d6000803e3d6000fd5b505050506040513d601f19601f820116820180604052508101906102cf9190610726565b600381905550565b600581815481106102e757600080fd5b906000526020600020016000915090505481565b60035481565b806005908051906020019061031792919061031c565b505050565b828054828255906000526020600020908101928215610358579160200282015b8281111561035757825182559160200191906001019061033c565b5b5090506103659190610369565b5090565b5b8082111561038257600081600090555060010161036a565b5090565b6000604051905090565b600080fd5b600080fd5b6000819050919050565b6103ad8161039a565b81146103b857600080fd5b50565b6000813590506103ca816103a4565b92915050565b600080fd5b6000601f19601f8301169050919050565b7f4e487b7100000000000000000000000000000000000000000000000000000000600052604160045260246000fd5b61041e826103d5565b810181811067ffffffffffffffff8211171561043d5761043c6103e6565b5b80604052505050565b6000610450610386565b905061045c8282610415565b919050565b600067ffffffffffffffff82111561047c5761047b6103e6565b5b602082029050602081019050919050565b600080fd5b60006104a56104a084610461565b610446565b905080838252602082019050602084028301858111156104c8576104c761048d565b5b835b818110156104f157806104dd88826103bb565b8452602084019350506020810190506104ca565b5050509392505050565b600082601f8301126105105761050f6103d0565b5b8135610520848260208601610492565b91505092915050565b600080604083850312156105405761053f610390565b5b600061054e858286016103bb565b925050602083013567ffffffffffffffff81111561056f5761056e610395565b5b61057b858286016104fb565b9150509250929050565b60006020828403121561059b5761059a610390565b5b60006105a9848285016103bb565b91505092915050565b6105bb8161039a565b82525050565b60006020820190506105d660008301846105b2565b92915050565b600073ffffffffffffffffffffffffffffffffffffffff82169050919050565b6000610607826105dc565b9050919050565b610617816105fc565b82525050565b6000604082019050610632600083018561060e565b61063f602083018461060e565b9392505050565b6000819050919050565b61065981610646565b82525050565b600067ffffffffffffffff82169050919050565b61067c8161065f565b82525050565b600061ffff82169050919050565b61069981610682565b82525050565b600063ffffffff82169050919050565b6106b88161069f565b82525050565b600060a0820190506106d36000830188610650565b6106e06020830187610673565b6106ed6040830186610690565b6106fa60608301856106af565b61070760808301846106af565b9695505050505050565b600081519050610720816103a4565b92915050565b60006020828403121561073c5761073b610390565b5b600061074a84828501610711565b9150509291505056fea26469706673582212203c5e8a5b00aaf115f4a40885e0121329be4a441b6604286407135e985d4d045464736f6c63430008110033",
  "linkReferences": {},
  "deployedLinkReferences": {}
}